:0300000002068C69
:0C068C00787FE4F6D8FD7581730206D378
:1008F700C2A58F807F017E00120908D2A77F057EDF
:0109070000EF
:10090800D3EF9400EE9400400F7DC77C01DCFEDD40
:08091800FAEF1F70EB1E80E8EE
:0109200022B4
:0A0B1400C2A7C2A61208F7C2A7226A
:0A0B1E00C2A7D2A61208F7C2A72250
:100A71007F38120B147F0C120B147F06120B147F9C
:090A810001120B147F80020B141A
:100718007A6E636B006D733100202020202020202A
:10072800002020202020202020006D7332007173CB
:10073800726D6D20202020002020202020200064C1
:100748006A73007300717372786D6D007967786DE4
:0E0758006D20007173726D6D20006D733300A3
:100896000133000138010113FF0234000002360063
:1008A600000B1530313233343536373839001021E4
:1008B6003031323334353637383941424344454690
:0B0AFE00EF1FAC0670011E4C70F622CA
:060AB800753102E4F509AE
:0D0ABE007FA77EAB7D10DDFEDEFADFF600C7
:010ACB002208
:1009FF00D3EF9400EE940040147D6E7C00ED1D70DB
:0D0A0F00011CED4C70F7EF1F70E61E80E338
:010A1C0022B7
:070B2800D2AFD2A8D288224F
:0F0AE000758902E4F58CF58AD28CD2A9D2AF22A7
:100921007E01E4FDE4FCEFC313FF743B2EF8E6D334
:10093100940640034307800E0CBC08EA745C2DF852
:09094100A6070DBD04DE750801D6
:01094A00228A
:1007E500E55CC4540FF50AE55C540FF50BE55DC4F3
:1007F500540FF50CE55D540FF50DE55EC4540FF58A
:100805000EE55E540FF50FE55FC4540FF510E55F77
:0D081500540FF511850E39850F3A05142298
:050006007F80020A3BAF
:10085F00E539B40414E53AB4050FE514B4010AE41C
:10086F00F539F53A753102F509E539B40418E53A69
:10087F00B40513E514C39402400CE4F539F53AF5C9
:07088F0014753106F5092282
:10000E00120ACC7BFF7A077918E4FD7F041205678C
:10001E00120B28120AE07F021208C78F33E533C392
:10002E0094004007E533D394094003E4F533756932
:10003E0000756A00756B387B007A007913120340E5
:10004E00E538640170527BFF7A07791D7D017F0DC3
:10005E001205677BFF7A077921E4FD7F0A12056797
:10006E007BFF7A0779297D01E4FF12056775690028
:10007E00756A00756B387B007A007913120340E5C0
:10008E0038B4011420B6E6120AB830B6FD30B6DD2B
:10009E00753106E4F50980D5E53864026003020285
:1000AE00DCE538640170030202DCE538640370039A
:1000BE000202DC7BFF7A0779327D017F0D12056724
:1000CE007BFF7A0779367D01E4FF1205677BFF7AA5
:1000DE00077940E4FD7F0A1205677513FF75690005
:1000EE00756A00756B387B007A007913120340E550
:1000FE0033B513AD120AB8F534F5357513FFC3E5F4
:10010E003594B0E53494365003020223E4F536F507
:10011E0037F534F535C3E5379404E53694004003DE
:10012E000201EDC3E5359420E534944E400DE4F51F
:10013E0034F5350537E53770020536E5336513704E
:10014E00030201EDAE34AF357C0F7DA0120637AA47
:10015E0006AB07AE36AF377C007D05120625EF2BBA
:10016E00FFEE3AFEC374149FFBE49EFA7D0AAF03C2
:10017E00FE1206378E628F6374152FF8E6F5607CDB
:10018E00007D0AAF03AE021206378C648D657415BE
:10019E002565F8E6F5617BFF7A077947E4FD7F0A6E
:1001AE001205677B007A007960E4FD7F0D1205670A
:1001BE007B007A007961E4FD7F0E1205677BFF7A82
:1001CE0007794BE4FD7F0F120567756900756A00AC
:1001DE00756B387B007A007913120340020123C33A
:1001EE00E5379404E53694004029753600753705D9
:1001FE00756900756A00756B387B007A0079131289
:10020E000340E5336513600BB2B57F017E00120922
:10021E00FF80CCC2B5756900756A00756B387B00BE
:10022E007A007913120340E533651370030202D38B
:10023E00E53870747BFF7A0779327D017F0D1205E8
:10024E00677BFF7A07794D7D01E4FF1205677BFF1F
:10025E007A077940E4FD7F0A120567853313E513AB
:10026E00B53314756900756A00756B387B007A00BA
:10027E00791312034080E7851333AD337F021209E1
:10028E004B7BFF7A0779547D01E4FF1205677BFFF4
:10029E007A077940E4FD7F0A1205677FE87E031234
:1002AE0009FF7513FF7538027BFF7A07795B7D01B5
:1002BE00E4FF1205677BFF7A077940E4FD7F0A129F
:1002CE000567020109753106E4F5090200AFE5384C
:1002DE006403600302003C7BFF7A0779627D017F35
:1002EE000D1205677BFF7A077921E4FD7F0A12055F
:1002FE00677BFF7A0779297D01E4FF12056775692F
:10030E0000756A00756B387B007A00791312034012
:10031E00E5386403600302003CE532600DE4F5321B
:10032E00120921E50860031207E512085F120006A4
:02033E0080CC71
:03000B000209DF08
:1009DF00C0E0C0D005090535E53570020534E509DD
:1009EF00D395315004D2B78002C2B7D0D0D0E03205
:03000300020822CE
:10082200C0E0C0D075D000C000E5206023E509D348
:1008320094204003751200743B2512F8A60975092D
:10084200000512E512B4210E751200753201800600
:0D085200752001750900D000D0D0D0E03233
:100A3B00C2A6C2A5C2A78F807F017E00120A1DD25B
:0B0A4B00A77F017E00120A1DC2A72237
:0A097400AB67AA68A9691205FAFF33
:10097E00D2A6C2A5C2A78F807F017E00120A1DD209
:0B098E00A77F017E00120A1DC2A722F5
:100ACC007F38120A3B7F0C120A3B7F06120A3B7FCF
:040ADC0001020A3BCE
:050B2F007F01020A3BFA
:080567008F668B678A688969C1
:10056F00E4F56AEDD3940140030205F9E566940FB3
:10057F005078EDC394015039AB67AA68A969120589
:10058F00FA6067C374109566FFE56AC39FE56A500A
:10059F0006248025668004256624B0FF120A3B12CC
:1005AF00097474012569F569E43568F568056A8091
:1005BF00C7AB67AA68A9691205FA602EC3741095B4
:1005CF0066FFE56AC39FE56A500624C0256680046E
:1005DF0025662470FF120A3B12097474012569F510
:0A05EF0069E43568F568056A80C705
:0105F90022DF
:0404C1008F6C8B6D44
:1004C500E4F56EF56F75700075716DEDD3940140AF
:1004D50003020566E56C940F4003020566EDC394BF
:1004E50001503FAB6FAA70A9711205FA6073C3740E
:1004F50010956CFFE56EC39FE56E50062480256C54
:100505008004256C24B0FF120A3BAB6FAA70A97159
:1005150012097A74012571F571E43570F570056E6F
:1005250080C1AB6FAA70A9711205FA6034C374104B
:10053500956CFFE56EC39FE56E500624C0256C8063
:1005450004256C2470FF120A3BAB6FAA70A97112C7
:10055500097A74012571F571E43570F570056E80C1
:01056500C1D4
:010566002272
:0B0B0900EF1FAC0670011E4C70F622BE
:100A1D00D3EF9400EE940040147D6E7C00ED1D70BC
:0D0A2D00011CED4C70F7EF1F70E61E80E31A
:010A3A002299
:040AEF007FE87E031B
:0B0AF300EF1FAC0670011E4C70F622D5
:100340008B668A6789687590FEE59064FE60551239
:100350000AEFE59064FE6047E59054F0757200F591
:1003600073E572703AE5732490602924C0601B2401
:10037000E0600D24F07028AB66AA67A968E4801CD1
:10038000AB66AA67A96874018012AB66AA67A96800
:1003900074028008AB66AA67A9687403120613E5A5
:1003A00090B4FEFB7590FDE59064FD6056120AEF77
:1003B000E59064FD6048E59054F0757200F573E5D2
:1003C00072703BE5732490602A24C0601C24E060B6
:1003D0000E24F07029AB66AA67A9687404801CAB70
:1003E00066AA67A96874058012AB66AA67A96874D3
:1003F000068008AB66AA67A9687407120613E59021
:10040000B4FDFB7590FBE59064FB6056120AEFE5C6
:100410009064FB6048E59054F0757200F573E572E6
:10042000703BE5732490602A24C0601C24E0600EB9
:1004300024F07029AB66AA67A9687408801CAB66B3
:10044000AA67A96874098012AB66AA67A968740ACA
:100450008008AB66AA67A968740B120613E590B40E
:10046000FBFB7590F7E59064F76055120AEFE59095
:1004700064F76047E59054F0757200F573E57270AB
:100480003AE5732490602A24C0601C24E0600E24A6
:10049000F07028AB69AA6AA96B7403801BAB69AAC8
:1004A0006AA96B74028011AB69AA6AA96B74018096
:1004B00007AB69AA6AA96BE4120613E590B4F7FBCF
:0104C0002219
:10099900D2A07F017E00120B09D2A17F017E001235
:1009A9000B09C2A07F017E00120B09C2A17F017E43
:0409B90000020B0924
:100A5600C2A07F017E00120B09D2A17F017E001287
:0B0A66000B09D2A07F017E00020B09EB
:100A8A00C2A1C2A07F017E00120B09D2A17F017E02
:070A9A0000120B09C2A122AA
:100AA100C2A1D2A07F017E00120B09D2A17F017EDB
:070AB10000120B09C2A12293
:1009BD00E4F568D2A17F01FE120B0930A00F056886
:1009CD00E568D3946440F4120A567F0122C2A17FD8
:0109DD000019
:0109DE0022F6
:020766008F689A
:10076800E4F569C2A1F569E5685480D394004004B2
:10077800D2A08002C2A0E56825E0F5687F017E006E
:10078800120B09D2A17F017E00120B09C2A17F01C1
:0E0798007E00120B090569E569C3940840C98B
:0107A6002230
:0207A7008F6859
:1007A900E4F569F56AF569C2A17F017E00120B09BA
:1007B900D2A1E56A25E0F56A30A002056A7F017ECB
:1007C90000120B090569E569C3940840DAE5687008
:0B07D90005120AA18003120A8AAF6A11
:0107E40022F2
:10094B008F668D671209997FA01207661209BDAFDA
:10095B00661207661209BDAF671207661209BD1250
:09096B000A567F0A7E00020A1DF3
:0208C7008F663A
:1008C900E4F5671209997FA01207661209BDAF66A0
:1008D9001207661209BD1209997FA112076612094A
:0D08E900BDE4FF1207A78F67120A56AF6724
:0108F60022DF
:1006980002000EE493A3F8E493A34003F68001F26A
:1006A80008DFF48029E493A3F85407240CC8C33363
:1006B800C4540F4420C8834004F456800146F6DF32
:1006C800E4800B0102040810204080900896E47E24
:1006D800019360BCA3FF543F30E509541FFEE49327
:1006E800A360010ECF54C025E060A840B8E493A3EE
:1006F800FAE493A3F8E493A3C8C582C8CAC583CA19
:10070800F0A3C8C582C8CAC583CADFE9DEE780BED0
:0108C6000031
:1005FA00BB010689828A83E0225002E722BBFE02FF
:09060A00E32289828A83E4932231
:10061300BB010689828A83F0225002F722BBFE01C6
:02062300F322C0
:10062500EF8DF0A4A8F0CF8CF0A428CE8DF0A42EE9
:02063500FE22A3
:10063700BC000BBE0029EF8DF084FFADF022E4CCA7
:10064700F875F008EF2FFFEE33FEEC33FCEE9DEC70
:10065700984005FCEE9DFE0FD5F0E9E4CEFD22EDB6
:10066700F8F5F0EE8420D21CFEADF075F008EF2F00
:10067700FFED33FD4007985006D5F0F222C398FDF1
:050687000FD5F0EA228E
:00000001FF
