:030000000206965F
:0C069600787FE4F6D8FD7581730206DD64
:10090100C2A58F807F017E00120912D2A77F057ECA
:0109110000E5
:10091200D3EF9400EE9400400F7DC77C01DCFEDD36
:08092200FAEF1F70EB1E80E8E4
:01092A0022AA
:0A0B1E00C2A7C2A6120901C2A72255
:0A0B2800C2A7D2A6120901C2A7223B
:100A7B007F38120B1E7F0C120B1E7F06120B1E7F74
:090A8B0001120B1E7F80020B1EFC
:100722007A6E636B006D7331002020202020202020
:10073200002020202020202020006D7332007173C1
:10074200726D6D20202020002020202020200064B7
:100752006A73007300717372786D6D007967786DDA
:0E0762006D20007173726D6D20006D73330099
:1008A0000133000138010113FF0234000002360059
:1008B000000B1530313233343536373839001021DA
:1008C0003031323334353637383941424344454686
:0B0B0800EF1FAC0670011E4C70F622BF
:060AC200753102E4F509A4
:0D0AC8007FA77EAB7D10DDFEDEFADFF600BD
:010AD50022FE
:100A0900D3EF9400EE940040147D6E7C00ED1D70D0
:0D0A1900011CED4C70F7EF1F70E61E80E32E
:010A260022AD
:070B3200D2AFD2A8D2882245
:0F0AEA00758902E4F58CF58AD28CD2A9D2AF229D
:10092B007E01E4FDE4FCEFC313FF743B2EF8E6D32A
:10093B00940640034307800E0CBC08EA745C2DF848
:09094B00A6070DBD04DE750801CC
:010954002280
:1007EF00E55CC4540FF50AE55C540FF50BE55DC4E9
:1007FF00540FF50CE55D540FF50DE55EC4540FF580
:10080F000EE55E540FF50FE55FC4540FF510E55F6D
:0D081F00540FF511850E39850F3A0514228E
:010B39002299
:10086900E539B40414E53AB4050FE514B4010AE412
:10087900F539F53A753102F509E539B40418E53A5F
:10088900B40513E514C39402400CE4F539F53AF5BF
:0708990014753106F5092278
:10000E00120AD67BFF7A077922E4FD7F041205716E
:10001E00120B32120AEA7F021208D18F33E533C374
:10002E0094004007E533D394094003E4F533756932
:10003E0000756A00756B387B007A00791312034ADB
:10004E00E5386401705C7BFF7A0779277D017F0DAF
:10005E001205717BFF7A07792BE4FD7F0A12057179
:10006E007BFF7A0779337D01E4FF12057175690014
:10007E00756A00756B387B007A00791312034AE5B6
:10008E00386401701D20B40330B3E2120AC220B4EA
:10009E00FD20B3FA30B40320B3D3753106E4F5096D
:1000AE0080CBE538640260030202E6E53864017035
:1000BE00030202E6E538640370030202E67BFF7A70
:1000CE0007793C7D017F0D1205717BFF7A07794020
:1000DE007D01E4FF1205717BFF7A07794AE4FD7F0B
:1000EE000A1205717513FF756900756A00756B3814
:1000FE007B007A00791312034AE533B513AD120A69
:10010E00C2F534F5357513FFC3E53594B0E5349477
:10011E0036500302022DE4F536F537F534F535C3C6
:10012E00E5379404E536940040030201F7C3E53544
:10013E009420E534944E400DE4F534F5350537E55D
:10014E003770020536E533651370030201F7AE34DE
:10015E00AF357C0F7DA0120641AA06AB07AE36AFB7
:10016E00377C007D0512062FEF2BFFEE3AFEC3748F
:10017E00149FFBE49EFA7D0AAF03FE1206418E62C7
:10018E008F6374152FF8E6F5607C007D0AAF03AE21
:10019E00021206418C648D6574152565F8E6F561CD
:1001AE007BFF7A077951E4FD7F0A1205717B007A95
:1001BE00007960E4FD7F0D1205717B007A00796194
:1001CE00E4FD7F0E1205717BFF7A077955E4FD7F02
:1001DE000F120571756900756A00756B387B007AB0
:1001EE0000791312034A02012DC3E5379404E53654
:1001FE0094004029753600753705756900756A00DB
:10020E00756B387B007A00791312034AE533651358
:10021E00600BB2B57F017E00120A0980CCC2B575A3
:10022E006900756A00756B387B007A0079131203CA
:10023E004AE533651370030202DDE53870747BFF07
:10024E007A07793C7D017F0D1205717BFF7A077964
:10025E00577D01E4FF1205717BFF7A07794AE4FDB1
:10026E007F0A120571853313E513B53314756900D2
:10027E00756A00756B387B007A00791312034A8019
:10028E00E7851333AD337F021209557BFF7A077969
:10029E005E7D01E4FF1205717BFF7A07794AE4FD6A
:1002AE007F0A1205717FE87E03120A097513FF7526
:1002BE0038027BFF7A0779657D01E4FF1205717BB9
:1002CE00FF7A07794AE4FD7F0A1205710201137560
:1002DE003106E4F5090200B9E53864036003020053
:1002EE003C7BFF7A07796C7D017F0D1205717BFFD8
:1002FE007A07792BE4FD7F0A1205717BFF7A077965
:10030E00337D01E4FF120571756900756A00756B26
:10031E00387B007A00791312034AE53864036003D0
:10032E0002003CE532600DE4F53212092BE508605F
:0C033E00031207EF120869120B3980CC83
:03000B000209E9FE
:1009E900C0E0C0D005090535E53570020534E509D3
:1009F900D395315004D2B78002C2B7D0D0D0E032FB
:0300030002082CC4
:10082C00C0E0C0D075D000C000E5206023E509D33E
:10083C0094204003751200743B2512F8A609750923
:10084C00000512E512B4210E7512007532018006F6
:0D085C00752001750900D000D0D0D0E03229
:100A4500C2A6C2A5C2A78F807F017E00120A27D247
:0B0A5500A77F017E00120A27C2A72223
:0A097E00AB67AA68A969120604FF1E
:10098800D2A6C2A5C2A78F807F017E00120A27D2F5
:0B099800A77F017E00120A27C2A722E1
:100AD6007F38120A457F0C120A457F06120A457FA7
:040AE60001020A45BA
:050006007F01020A4524
:080571008F668B678A688969B7
:10057900E4F56AEDD394014003020603E566940F9E
:100589005078EDC394015039AB67AA68A96912067E
:10059900046067C374109566FFE56AC39FE56A50F6
:1005A90006248025668004256624B0FF120A4512B8
:1005B900097E74012569F569E43568F568056A807D
:1005C900C7AB67AA68A969120604602EC37410959F
:1005D90066FFE56AC39FE56A500624C02566800464
:1005E90025662470FF120A4512097E74012569F5F2
:0A05F90069E43568F568056A80C7FB
:0106030022D4
:0404CB008F6C8B6D3A
:1004CF00E4F56EF56F75700075716DEDD3940140A5
:1004DF0003020570E56C940F4003020570EDC394A1
:1004EF0001503FAB6FAA70A9711206046073C374F9
:1004FF0010956CFFE56EC39FE56E50062480256C4A
:10050F008004256C24B0FF120A45AB6FAA70A97145
:10051F0012098474012571F571E43570F570056E5B
:10052F0080C1AB6FAA70A9711206046034C3741036
:10053F00956CFFE56EC39FE56E500624C0256C8059
:10054F0004256C2470FF120A45AB6FAA70A97112B3
:10055F00098474012571F571E43570F570056E80AD
:01056F00C1CA
:010570002268
:0B0B1300EF1FAC0670011E4C70F622B4
:100A2700D3EF9400EE940040147D6E7C00ED1D70B2
:0D0A3700011CED4C70F7EF1F70E61E80E310
:010A4400228F
:040AF9007FE87E0311
:0B0AFD00EF1FAC0670011E4C70F622CB
:10034A008B668A6789687590FEE59064FE6055122F
:10035A000AF9E59064FE6047E59054F0757200F57D
:10036A0073E572703AE5732490602924C0601B24F7
:10037A00E0600D24F07028AB66AA67A968E4801CC7
:10038A00AB66AA67A96874018012AB66AA67A968F6
:10039A0074028008AB66AA67A968740312061DE591
:1003AA0090B4FEFB7590FDE59064FD6056120AF963
:1003BA00E59064FD6048E59054F0757200F573E5C8
:1003CA0072703BE5732490602A24C0601C24E060AC
:1003DA000E24F07029AB66AA67A9687404801CAB66
:1003EA0066AA67A96874058012AB66AA67A96874C9
:1003FA00068008AB66AA67A968740712061DE5900D
:10040A00B4FDFB7590FBE59064FB6056120AF9E5B2
:10041A009064FB6048E59054F0757200F573E572DC
:10042A00703BE5732490602A24C0601C24E0600EAF
:10043A0024F07029AB66AA67A9687408801CAB66A9
:10044A00AA67A96874098012AB66AA67A968740AC0
:10045A008008AB66AA67A968740B12061DE590B4FA
:10046A00FBFB7590F7E59064F76055120AF9E59081
:10047A0064F76047E59054F0757200F573E57270A1
:10048A003AE5732490602A24C0601C24E0600E249C
:10049A00F07028AB69AA6AA96B7403801BAB69AABE
:1004AA006AA96B74028011AB69AA6AA96B7401808C
:1004BA0007AB69AA6AA96BE412061DE590B4F7FBBB
:0104CA00220F
:1009A300D2A07F017E00120B13D2A17F017E001221
:1009B3000B13C2A07F017E00120B13C2A17F017E25
:0409C30000020B1310
:100A6000C2A07F017E00120B13D2A17F017E001273
:0B0A70000B13D2A07F017E00020B13CD
:100A9400C2A1C2A07F017E00120B13D2A17F017EEE
:070AA40000120B13C2A12296
:100AAB00C2A1D2A07F017E00120B13D2A17F017EC7
:070ABB0000120B13C2A1227F
:1009C700E4F568D2A17F01FE120B1330A00F056872
:1009D700E568D3946440F4120A607F0122C2A17FC4
:0109E700000F
:0109E80022EC
:020770008F6890
:10077200E4F569C2A1F569E5685480D394004004A8
:10078200D2A08002C2A0E56825E0F5687F017E0064
:10079200120B13D2A17F017E00120B13C2A17F01A3
:0E07A2007E00120B130569E569C3940840C977
:0107B0002226
:0207B1008F684F
:1007B300E4F569F56AF569C2A17F017E00120B13A6
:1007C300D2A1E56A25E0F56A30A002056A7F017EC1
:1007D30000120B130569E569C3940840DAE56870F4
:0B07E30005120AAB8003120A94AF6AF3
:0107EE0022E8
:100955008F668D671209A37FA01207701209C7AFB2
:10096500661207701209C7AF671207701209C7121E
:090975000A607F0A7E00020A27D5
:0208D1008F6630
:1008D300E4F5671209A37FA01207701209C7AF6678
:1008E3001207701209C71209A37FA1120770120918
:0D08F300C7E4FF1207B18F67120A60AF67FC
:0109000022D4
:1006A20002000EE493A3F8E493A34003F68001F260
:1006B20008DFF48029E493A3F85407240CC8C33359
:1006C200C4540F4420C8834004F456800146F6DF28
:1006D200E4800B01020408102040809008A0E47E10
:1006E200019360BCA3FF543F30E509541FFEE4931D
:1006F200A360010ECF54C025E060A840B8E493A3E4
:10070200FAE493A3F8E493A3C8C582C8CAC583CA0E
:10071200F0A3C8C582C8CAC583CADFE9DEE780BEC6
:0108D0000027
:10060400BB010689828A83E0225002E722BBFE02F4
:09061400E32289828A83E4932227
:10061D00BB010689828A83F0225002F722BBFE01BC
:02062D00F322B6
:10062F00EF8DF0A4A8F0CF8CF0A428CE8DF0A42EDF
:02063F00FE2299
:10064100BC000BBE0029EF8DF084FFADF022E4CC9D
:10065100F875F008EF2FFFEE33FEEC33FCEE9DEC66
:10066100984005FCEE9DFE0FD5F0E9E4CEFD22EDAC
:10067100F8F5F0EE8420D21CFEADF075F008EF2FF6
:10068100FFED33FD4007985006D5F0F222C398FDE7
:050691000FD5F0EA2284
:00000001FF
