:0300000002000EED
:0C000E00787FE4F6D8FD75816302005590
:1001E200C2A58F807F017E001201F3D2A77F057E18
:0101F200000C
:1001F300D3EF9400EE9400400F7DC77C01DCFEDD5D
:08020300FAEF1F70EB1E80E80A
:01020B0022D0
:0A02B100C2A7C2A61201E2C2A722F2
:0A02BB00C2A7D2A61201E2C2A722D8
:100258007F381202B17F0C1202B17F061202B17F01
:09026800011202B17F800202B113
:1001B7000813205245442049522010293031323348
:1001C7003435363738394142434445460C1B53547E
:0A01D7004154453A0000000000000A
:0B02A600EF1FAC0670011E4C70F6222A
:0D0298007FA77EAB7D10DDFEDEFADFF600F5
:0102A5002236
:030006000202B142
:0502C5002563F8E6FFCF
:0302CA000202BB72
:0302D400020258CB
:0702CD00D2AFD2A8D28822B3
:0F028900758902E4F58CF58AD28CD2A9D2AF2206
:10020C007E01E4FDE4FCEFC313FF743E2EF8E6D34D
:10021C00940640034307800E0CBC08EA745F2DF86B
:09022C00A6070DBD04DE750801F2
:0102350022A6
:10010100E55FC4540FF50AE55F540FF50BE560C4D4
:10011100540FF50CE560540FF50DE561C4540FF56E
:100121000EE561540FF50FE562C4540FF510E56259
:0D013100540FF511850E3C850F3D0527226A
:10009A007F80120006E4F56374131202C50563E556
:1000AA0063C3940840F2756304740A2563F8E6246E
:1000BA0029F8E6FF1202CA0563E563C3940640E91C
:1000CA007FC0120006E4F563741B1202C50563E5DE
:1000DA0063C3940640F2E53B7F4FB4010C1202CA97
:1000EA007F4E1202CA7F20800A1202CA7F4612027B
:0600FA00CA7F461202CA93
:0101000022DC
:10017B00E53CB40417E53DB40512E527B4010DE4E5
:10018B00F53CF53D753B01753902F509E53CB404C9
:10019B001AE53DB40515E527C39402400EE4F53C82
:0C01AB00F53DF527F53B753906F50922F6
:100236001202D41202CD120289E53A600DE4F53AB3
:1002460012020CE508600312010112017B12009AEA
:0202560080E73F
:03000B000202717D
:10027100C0E0C0D00509E509D395395004D2B78053
:0802810002C2B7D0D0D0E03278
:0300030002013EB9
:10013E00C0E0C0D075D000C000E5286023E509D32B
:10014E0094204003751200743E2512F8A609750915
:10015E00000512E512B4210E751200753A018006E3
:0D016E00752801750900D000D0D0D0E03216
:10001A00020236E493A3F8E493A34003F68001F2C4
:10002A0008DFF48029E493A3F85407240CC8C333E7
:10003A00C4540F4420C8834004F456800146F6DFB6
:10004A00E4800B01020408102040809001B7E47E8E
:10005A00019360BCA3FF543F30E509541FFEE493AB
:10006A00A360010ECF54C025E060A840B8E493A372
:10007A00FAE493A3F8E493A3C8C582C8CAC583CA9D
:10008A00F0A3C8C582C8CAC583CADFE9DEE780BE55
:0101E100001D
:00000001FF
