:0300000002066D88
:0C066D00787FE4F6D8FD7581730206B4B6
:10082900C2A58F807F017E0012083AD2A77F057E7C
:0108390000BE
:10083A00D3EF9400EE9400400F7DC77C01DCFEDD0F
:08084A00FAEF1F70EB1E80E8BD
:010852002283
:0A09AE00C2A7C2A6120829C2A722A0
:0A09B800C2A7D2A6120829C2A72286
:100939007F381209AE7F0C1209AE7F061209AE7F0D
:09094900011209AE7F800209AE23
:1006F9007A6E636B006D733100202020202020204A
:10070900002020202020202020006D7332007173EA
:10071900726D6D20202020002020202020200064E0
:100729006A73007300717372786D6D007967786D03
:0E0739006D20007173726D6D20006D733300C2
:1007F8000133000138010113FF0234000002360002
:10080800000B153031323334353637383900102182
:10081800303132333435363738394142434445462E
:0B099800EF1FAC0670011E4C70F62231
:06095200753102E4F50915
:0D0958007FA77EAB7D10DDFEDEFADFF6002E
:01096500226F
:1008E200D3EF9400EE940040147D6E7C00ED1D70F9
:0D08F200011CED4C70F7EF1F70E61E80E357
:0108FF0022D6
:0709C200D2AFD2A8D28822B7
:0F097A00758902E4F58CF58AD28CD2A9D2AF220E
:100853007E01E4FDE4FCEFC313FF743B2EF8E6D303
:10086300940640034307800E0CBC08EA745C2DF821
:09087300A6070DBD04DE750801A5
:01087C002259
:10074700E55CC4540FF50AE55C540FF50BE55DC491
:10075700540FF50CE55D540FF50DE55EC4540FF528
:100767000EE55E540FF50FE55FC4540FF510E55F16
:0D077700540FF511850E39850F3A05142237
:1008A2007F8012091E756604740A2566F8E6242103
:0F08B200F8E6FF1208870566E566C3940640E97D
:0108C1002214
:1007C100E539B40414E53AB4050FE514B4010AE4BB
:1007D100F539F53A753102F509E539B40418E53A08
:1007E100B40513E514C39402400CE4F539F53AF568
:0707F10014753106F5092221
:10000E001209667BFF7A0679F9E4FD7F0412054832
:10001E001209C212097A756900756A00756B387B10
:10002E00007A007913120321E538640170527BFFC8
:10003E007A0679FE7D017F0D1205487BFF7A0779DE
:10004E0002E4FD7F0A1205487BFF7A07790A7D01DB
:10005E00E4FF120548756900756A00756B387B0000
:10006E007A007913120321E538B4011420B6E61292
:10007E00095230B6FD30B6DD753106E4F50980D58E
:10008E00E538640260030202BDE5386401700302C4
:10009E0002BDE538640370030202BD7BFF7A077967
:1000AE00137D017F0D1205487BFF7A0779177D01BD
:1000BE00E4FF1205487BFF7A077921E4FD7F0A12DF
:1000CE0005487513FF756900756A00756B387B00FE
:1000DE007A007913120321E533B513AD120952F5E7
:1000EE0034F5357513FFC3E53594B0E534943650C9
:1000FE000302020BE4F536F537F534F535C3E53773
:10010E009404E536940040030201D5C3E5359420EE
:10011E00E534944E400DE4F534F5350537E537708A
:10012E00020536E533651370030201D5AE34AF35E3
:10013E007C0F7DA0120618AA06AB07AE36AF377C31
:10014E00007D05120606EF2BFFEE3AFEC374149FD8
:10015E00FBE49EFA7D0AAF03FE1206188E628F63D1
:10016E0074152FF8E6F5607C007D0AAF03AE02121F
:10017E0006188C648D6574152565F8E6F5617BFFB0
:10018E007A077928E4FD7F0A1205487B007A007908
:10019E0060E4FD7F0D1205487B007A007961E4FD75
:1001AE007F0E1205487BFF7A07792CE4FD7F0F1234
:1001BE000548756900756A00756B387B007A0079A1
:1001CE001312032102010BC3E5379404E5369400A4
:1001DE004029753600753705756900756A00756BAF
:1001EE00387B007A007913120321E5336513600B17
:1001FE00B2B57F017E001208E280CCC2B5756900EF
:10020E00756A00756B387B007A007913120321E54D
:10021E0033651370030202B4E538706D7BFF7A0705
:10022E0079137D017F0D1205487BFF7A07792E7DAC
:10023E0001E4FF1205487BFF7A077921E4FD7F0A6E
:10024E00120548853313E513B53314756900756AC5
:10025E0000756B387B007A00791312032180E785D5
:10026E0013337BFF7A0779357D01E4FF1205487B56
:10027E00FF7A077921E4FD7F0A1205487FE87E03A5
:10028E001208E27513FF7538027BFF7A07793C7D01
:10029E0001E4FF1205487BFF7A077921E4FD7F0A0E
:1002AE001205480200F1753106E4F509020097E5E2
:1002BE0038640360030200247BFF7A0779437D01D3
:1002CE007F0D1205487BFF7A077902E4FD7F0A1243
:1002DE0005487BFF7A07790A7D01E4FF1205487510
:1002EE006900756A00756B387B007A00791312030A
:1002FE0021E53864036003020024E532600DE4F565
:10030E0032120853E50860031207471207C112089C
:03031E00A280CCEE
:03000B000208C226
:1008C200C0E0C0D005090535E53570020534E509FB
:1008D200D395315004D2B78002C2B7D0D0D0E03223
:030003000207846D
:10078400C0E0C0D075D000C000E5206023E509D3E7
:1007940094204003751200743B2512F8A6097509CC
:1007A400000512E512B4210E75120075320180069F
:0D07B400752001750900D000D0D0D0E032D2
:10091E00C2A6C2A5C2A78F807F017E00120900D297
:0B092E00A77F017E00120900C2A72273
:0A087D00AB67AA68A9691205DBFF4A
:10088700D2A6C2A5C2A78F807F017E00120900D21F
:0B089700A77F017E00120900C2A7220B
:100966007F3812091E7F0C12091E7F0612091E7F90
:040976000102091E53
:050006007F0102091E4C
:080548008F668B678A688969E0
:10055000E4F56AEDD3940140030205DAE566940FF1
:100560005078EDC394015039AB67AA68A9691205A8
:10057000DB6067C374109566FFE56AC39FE56A5048
:1005800006248025668004256624B0FF12091E1209
:10059000087D74012569F569E43568F568056A80A8
:1005A000C7AB67AA68A9691205DB602EC3741095F2
:1005B00066FFE56AC39FE56A500624C0256680048D
:1005C00025662470FF12091E12087D74012569F545
:0A05D00069E43568F568056A80C724
:0105DA0022FE
:0404A2008F6C8B6D63
:1004A600E4F56EF56F75700075716DEDD3940140CE
:1004B60003020547E56C940F4003020547EDC3941C
:1004C60001503FAB6FAA70A9711205DB6073C3744C
:1004D60010956CFFE56EC39FE56E50062480256C73
:1004E6008004256C24B0FF12091EAB6FAA70A97197
:1004F60012088374012571F571E43570F570056E87
:1005060080C1AB6FAA70A9711205DB6034C3741089
:10051600956CFFE56EC39FE56E500624C0256C8082
:1005260004256C2470FF12091EAB6FAA70A9711204
:10053600088374012571F571E43570F570056E80D8
:01054600C1F3
:010547002291
:0B09A300EF1FAC0670011E4C70F62226
:10090000D3EF9400EE940040147D6E7C00ED1D70DA
:0D091000011CED4C70F7EF1F70E61E80E338
:01091D0022B7
:040989007FE87E0382
:0B098D00EF1FAC0670011E4C70F6223C
:100321008B668A6789687590FEE59064FE60551258
:100331000989E59064FE6047E59054F0757200F517
:1003410073E572703AE5732490602924C0601B2420
:10035100E0600D24F07028AB66AA67A968E4801CF0
:10036100AB66AA67A96874018012AB66AA67A9681F
:1003710074028008AB66AA67A96874031205F4E5E4
:1003810090B4FEFB7590FDE59064FD6056120989FD
:10039100E59064FD6048E59054F0757200F573E5F1
:1003A10072703BE5732490602A24C0601C24E060D5
:1003B1000E24F07029AB66AA67A9687404801CAB8F
:1003C10066AA67A96874058012AB66AA67A96874F2
:1003D100068008AB66AA67A96874071205F4E59060
:1003E100B4FDFB7590FBE59064FB6056120989E54D
:1003F1009064FB6048E59054F0757200F573E57206
:10040100703BE5732490602A24C0601C24E0600ED8
:1004110024F07029AB66AA67A9687408801CAB66D2
:10042100AA67A96874098012AB66AA67A968740AE9
:100431008008AB66AA67A968740B1205F4E590B44D
:10044100FBFB7590F7E59064F76055120989E5901B
:1004510064F76047E59054F0757200F573E57270CA
:100461003AE5732490602A24C0601C24E0600E24C5
:10047100F07028AB69AA6AA96B7403801BAB69AAE7
:100481006AA96B74028011AB69AA6AA96B740180B5
:1004910007AB69AA6AA96BE41205F4E590B4F7FB0E
:0104A1002238
:1006790002000EE493A3F8E493A34003F68001F289
:1006890008DFF48029E493A3F85407240CC8C33382
:10069900C4540F4420C8834004F456800146F6DF51
:1006A900E4800B01020408102040809007F8E47EE2
:1006B900019360BCA3FF543F30E509541FFEE49346
:1006C900A360010ECF54C025E060A840B8E493A30D
:1006D900FAE493A3F8E493A3C8C582C8CAC583CA38
:1006E900F0A3C8C582C8CAC583CADFE9DEE780BEF0
:0108280000CF
:1005DB00BB010689828A83E0225002E722BBFE021E
:0905EB00E32289828A83E4932251
:1005F400BB010689828A83F0225002F722BBFE01E6
:02060400F322DF
:10060600EF8DF0A4A8F0CF8CF0A428CE8DF0A42E08
:02061600FE22C2
:10061800BC000BBE0029EF8DF084FFADF022E4CCC6
:10062800F875F008EF2FFFEE33FEEC33FCEE9DEC8F
:10063800984005FCEE9DFE0FD5F0E9E4CEFD22EDD5
:10064800F8F5F0EE8420D21CFEADF075F008EF2F1F
:10065800FFED33FD4007985006D5F0F222C398FD10
:050668000FD5F0EA22AD
:00000001FF
